S01C0000424C44435F4D6F746F72436F6E74726F6C6C65722E737265635F
S113000008850020D90C0000D50C0000D50C000098
S1130010D50C0000D50C0000D50C00000000000039
S1130020000000000000000000000000D50C0000EB
S1130030D50C000000000000D50C0000D50C000019
S1130040D50C0000D50C0000D50C0000D50C000028
S1130050D50C0000D50C0000D50C0000D50C000018
S1130060D50C0000D50C0000D50C0000D50C000008
S1130070D50C0000D50C0000D50C0000D50C0000F8
S1130080D50C0000D50C0000D50C0000D50C0000E8
S1130090D50C0000D50C0000D50C0000D50C0000D8
S11300A0D50C0000D50C0000D50C0000D50C0000C8
S11300B0D50C0000D50C0000D50C0000D50C0000B8
S11300C0D50C0000D50C0000D50C0000D50C0000A8
S11300D0D50C0000D50C0000D50C0000D50C000098
S11300E0D50C0000D50C000000000000000000004A
S11300F00000000061270000D50C0000D50C0000B2
S1130100D50C0000D50C0000D50C0000D50C000067
S1130110D50C0000D50C0000D50C0000D50C000057
S1130120D50C0000D50C0000D50C0000D50C000047
S1130130D50C0000D50C0000D50C0000D50C000037
S1130140D50C0000D50C0000C5280000D9280000FB
S1130150ED2800000129000000000000000000005C
S1130160000000000000000000000000000000008B
S1130170000000000000000000000000000000007B
S1130180D50C0000D50C0000D50C0000D50C0000E7
S113019000000000D50C0000D50C0000D50C0000B8
S11301A0D50C0000D50C0000D50C0000D50C0000C7
S11301B0D50C0000D50C0000D50C0000D50C0000B7
S11301C0D50C0000D50C0000D50C0000D50C0000A7
S11301D0D50C00000000000000000000000000003A
S11301E0000000000000000000000000E5310000F5
S11301F0D50C000021300000D50C000000000000E8
S1130200000000000000000000000000D50C000009
S1130210D50C0000D50C0000C12200005D320000A6
S1130220D5220000F5320000D50C0000D50C0000EA
S1130230D50C0000D50C0000D50C0000D50C000036
S113024000000000D50C0000D50C0000D50C000007
S1130250D50C0000D50C0000D50C0000D50C000016
S11302600000000010B5054C237833B9044B13B1DA
S11302700448AFF300800123237010BDBC000020AC
S113028000000000244500000C4B43B10C480D490C
S113029010B5AFF300800C48036823B910BD0A48B9
S11302A0036833B97047094B002BF7D0BDE8104001
S11302B01847064B002BF5D0184700BF000000007C
S11302C024450000C0000020244500000000000078
S11302D008B5014B984708BD1114000084B070B4F0
S11302E0064604A880E80E00DDED0E7A9DED0D7A39
S11302F037EE677A8DED077ADDED087A77EE676A77
S113030077EE277ADDED0A5A77EEE57A9DED0B6AF2
S113031077EEC67A9DED116A26EE276A9FED215A83
S1130320C6EE057AB6EE006A67EE867A76EEA76ABE
S1130330DDED107A67EEA66ADDED057A77EEA67A32
S1130340CDED047ACDED057A8DED087ACDED0B5A1D
S11303509DED147AF4EEC77AF1EE10FA09DC9DED06
S1130360157AF4EEC77AF1EE10FA14D400230A9346
S113037005E077EEC77ACDED0A7A8DED047A34463E
S113038004AD0FCD0FC40FCD0FC42B6823603046CE
S113039070BC04B0704777EEC77ACDED0A7A8DED64
S11303A0047AECE70050C3461F4A136823F00203A3
S11303B013601D4B9B6813F0030FFAD11B4A1A4BB1
S11303C0DA63194B9B68C3F30D03002BF9D1164B69
S11303D05A6922F0030242F002025A615A6922F079
S11303E07F4242F0F0525A615A6922F47F0242F489
S11303F0F0125A615A6942F480725A615A6942F49D
S113040000725A615A6942F480625A615A6942F42C
S113041000625A611A6842F002021A60024B9B6839
S113042013F0030FFAD17047008001410500000862
S113043007EE900A9FED187AF4EEC77AF1EE10FAFF
S113044001DDF0EE477AF5EEC07AF1EE10FA1CDB2E
S11304509FED117AF4EEC77AF1EE10FA18D882B053
S11304609FED0E7A67EE877A9FED0B6AC7EE866A78
S113047037EE667AFCEEC77ACDED017ABDF804302A
S1130480074A1367002002B070474FF0FF307047EF
S11304904FF0FF30704700BF0000C8420040FA44EC
S11304A0008001410A4A0023136053609360D360C3
S11304B00021116153619361064A13605360936094
S11304C0D360136153619361D3611362704700BFBA
S11304D050030020AC0200200A4A0023136053603A
S11304E09360D3600021116153619361064A1360E4
S11304F053609360D360136153619361D36113625A
S1130500704700BF34030020100300200A4A002370
S1130510136053609360D360002111615361936150
S1130520064A136053609360D3601361536193610F
S1130530D3611362704700BF6C030020D002002017
S11305400A4A0023136053609360D3600021116151
S113055053619361064A136053609360D3601361DF
S113056053619361D3611362704700BFF4020020AA
S11305708803002010B582B01C4B1A681C4B1A600B
S113058001A81C4B98471C4A1168136A14695C4003
S11305900C405C4001A8194B9847C4F30213013B7B
S11305A0052B1DD8DFE803F010080C1814030022F3
S11305B00E4B1A6002B010BD01220C4B1A60F9E711
S11305C002220A4B1A60F5E70322084B1A60F1E78E
S11305D00422064B1A60EDE70522044B1A60E9E792
S11305E04FF0FF32014B1A60E4E700BFD80000204F
S11305F0000000203518000000800041431800006E
S1130600F8B5174B1B68052B1BD0154B1B681BB982
S1130610144B1B68052B1DD0114C6068124B984776
S11306200022124B124DA84706460F462068114B74
S1130630984732463B46104DA847104B9847A06058
S1130640F8BD084B1B68002BDFD1054A5368013BFA
S11306505360E1E7024A536801335360DCE700BFAB
S1130660D800002000000020193C000000001840C1
S1130670E53C0000F93B000081390000094100001D
S113068000B583B007EE900A0023ADF806300023CE
S11306900093F5EEC07AF1EE10FA1ADD0123ADF8FD
S11306A0063000904FF480022E4B9A612E4B9847EF
S11306B02E4B98472E4B1A682E4B1B689A421DD01E
S11306C02B4B1B68052B19D8DFE803F02B111111F4
S11306D01137F5EEC07AF1EE10FAE3D54FF6FF7359
S11306E0ADF80630F1EE677ACDED007ADAE7204A0C
S11306F01368204909685B1A5BB2137300981E4B98
S11307009847BDF8063013F4004F21D1184B1A68EE
S11307101A4B33F812201A4BA3F8642003B05DF887
S113072004FB144B1B68052B03D0FF22104B1A73D8
S1130730E4E701220E4B1A73E0E70E4B1B681BB96A
S1130740FF220B4B1A73D9E70122094B1A73D5E721
S1130750074B1A68094B03EB42039A89084BA3F829
S11307606420DBE7008000417505000001060000FD
S1130770D80000200000002031040000F0410000F7
S113078000800141F0B59BB0334BD3ED007A334B7D
S113079093ED057AF4EEC77AF1EE10FA4BDD2E4BA9
S11307A083ED007A2C4C27682D4BD3F800E02D4EB6
S11307B008AD0FCC0FC594E8070085E80700CDF815
S11307C01CE006976C4606F10C050FCD0FC495E8A6
S11307D0030084E8030096E80E0010A8224CA0470A
S11307E0354610AC0FCC0FC50FCC0FC523682B605A
S11307F0D6ED006AB3EE087AC6EE877A9FED1B7ACF
S113080067EE877A1A4BC3ED007A93ED007ADFED39
S1130810197AB4EEE77AF1EE10FA18DC144B93ED82
S1130820007ADFED157AB4EEE77AF1EE10FA10D51E
S1130830C3ED007A0DE0094B93ED067AF4EEC77A26
S1130840F1EE10FAAED5044B83ED007AAAE7C3EDBE
S1130850007A1BB0F0BD00BF500300203403002019
S113086068010020AC020020DD0200000000C84244
S11308706C01002000004842000048C2F0B59BB063
S1130880464BD3ED007A464B93ED057AF4EEC77AE6
S1130890F1EE10FA72DD414B83ED007A3F4C27688C
S11308A0404BD3F800E0404E08AD0FCC0FC594E8A0
S11308B0070085E80700CDF81CE006976C4606F1B2
S11308C00C050FCD0FC495E8030084E8030096E8F7
S11308D00E0010A8354FB847344610AD0FCD0FC4E5
S11308E00FCD0FC42B682360D6F800E0304BD3F84B
S11308F000C0304E08AC304D0FCD0FC495E8070052
S113090084E80700CDF81CC0CDF818E06C4606F169
S11309100C050FCD0FC495E8030084E8030096E8A6
S11309200E0010A8B847354610AC0FCC0FC50FCC3D
S11309300FC523682B60D6ED006AB3EE087AC6EEC5
S1130940877A9FED1E7A67EE877A1D4BC3ED007A96
S113095093ED007ADFED1B7AB4EEE77AF1EE10FA4C
S113096018DC174B93ED007ADFED177AB4EEE77AD3
S1130970F1EE10FA10D5C3ED007A0DE0084B93EDBB
S1130980067AF4EEC77AF1EE10FA87D5034B83EDBD
S1130990007A83E7C3ED007A1BB0F0BD3403002076
S11309A06C0300206401002010030020DD0200001D
S11309B068010020AC020020500300200000C8425F
S11309C06C01002000004842000048C2F0B59BB012
S11309D0594BD3ED007A9FED597AF4EEC77AF1EED4
S11309E010FA40F39B8083ED007A534C2668544BF5
S11309F0D3F800E0534F08AD0FCC0FC594E80700BF
S1130A0085E80700CDF81CE006966C4607F10C0556
S1130A100FCD0FC495E8030084E8030097E80E00A7
S1130A2010A8494EB0473C4610AD0FCD0FC40FCDB2
S1130A300FC42B682360D7ED007AF1EE677A434B3D
S1130A40D3F800E0424F08AC424D0FCD0FC495E8F7
S1130A50070084E80700CDF81CE0CDED067A6C466B
S1130A6007F10C050FCD0FC495E8030084E80300DB
S1130A7097E80E0010A8B0473C4610AD0FCD0FC448
S1130A800FCD0FC42B682360D7F800E0324BD3F8A6
S1130A9000C0324F08AC324D0FCD0FC495E80700AB
S1130AA084E80700CDF81CC0CDF818E06C4607F1C7
S1130AB00C050FCD0FC495E8030084E8030097E804
S1130AC00E0010A8B0473D4610AC0FCC0FC50FCC9C
S1130AD00FC523682B60D7ED006AB3EE087AC6EE23
S1130AE0877A9FED207A67EE877A1F4BC3ED007AF1
S1130AF093ED007ADFED1D7AB4EEE77AF1EE10FAA9
S1130B0016DC194B93ED007ADFED197AB4EEE77A2F
S1130B10F1EE10FA0ED5C3ED007A0BE0F5EEC07AD3
S1130B20F1EE10FA7FF561AF0022034B1A605CE727
S1130B30C3ED007A1BB0F0BD6C03002000000C4331
S1130B402C010020D0020020DD02000064010020FE
S1130B50100300203403002068010020AC020020B0
S1130B60500300200000C8426C01002000004842ED
S1130B70000048C2F0B59BB0454BD3ED007AB1EE0E
S1130B80007AF4EEC77AF1EE10FA71DD83ED007AA3
S1130B903F4C27683F4BD3F800E03F4E08AD0FCCE5
S1130BA00FC594E8070085E80700CDF81CE0069718
S1130BB06C4606F10C050FCD0FC495E8030084E8DC
S1130BC0030096E80E0010A8344FB847344610AD21
S1130BD00FCD0FC40FCD0FC42B682360D6F800E0EF
S1130BE02F4BD3F800C02F4E08AC2F4D0FCD0FC4A0
S1130BF095E8070084E80700CDF81CC0CDF818E09C
S1130C006C4606F10C050FCD0FC495E8030084E88B
S1130C10030096E80E0010A8B847354610AC0FCC78
S1130C200FC50FCC0FC523682B60D6ED006AB3EE59
S1130C30087AC6EE877A9FED1D7A67EE877A1C4B99
S1130C40C3ED007A93ED007ADFED1A7AB4EEE77A19
S1130C50F1EE10FA17DC164B93ED007ADFED167AFD
S1130C60B4EEE77AF1EE10FA0FD5C3ED007A0CE09A
S1130C70B9EE007AF4EEC77AF1EE10FA88D5044B97
S1130C8083ED007A84E7C3ED007A1BB0F0BD00BFAA
S1130C90F40200205C01002088030020DD02000033
S1130CA068010020AC020020500300200000C8426C
S1130CB06C01002000004842000048C2014B186843
S1130CC0704700BFD8000020014B187B40B270472A
S1130CD0D8000020FEE7000008B5154B154A9A42DB
S1130CE009D0134B134A03E011681960043304322A
S1130CF011498B42F8D3114B02E000221A600433ED
S1130D000F4A9342F9D30F4B0F4A22F07F029A60A5
S1130D10D3F8882042F47002C3F88820BFF34F8FC1
S1130D20BFF36F8F094B9847094B9847FEE700BF05
S1130D300000002024450000BC000020BC0000206E
S1130D400805002000ED00E000000000A9410000BB
S1130D505133000008B5084A936943F40053936182
S1130D604222064BC3F8E820054B98470246054942
S1130D700548064B984708BD00080040001C004089
S1130D80DF2F000000A00141AC030020191D00006A
S1130D90F0B585B0334A136A43F0800313624022EE
S1130DA0314BC3F82021314E314D00240294314B94
S1130DB0019301230093234632462F4928462F4F9F
S1130DC0B8471023321D214628462D4CA0472D4BF1
S1130DD004225A6002F180429A624FF040419962C3
S1130DE093F8422002F0FE0242F0010283F842200E
S1130DF093F8312002F0F00242F0010283F831202E
S1130E0008225A6002F180429A62996293F8432060
S1130E1002F0FE0242F0010283F8432093F83120ED
S1130E2002F00F0242F0100283F831204FF40072F6
S1130E30C3F8842002F18042C3F8A820C3F8A810A4
S1130E4093F8C92002F0FE0242F0010283F8C9209F
S1130E5093F8B42002F00F0242F0100283F8B42099
S1130E6005B0F0BD00080040001C0040F000002068
S1130E705404002010040020001C0043D516000078
S1130E807D17000000800041F0B585B01E4A136A4A
S1130E9043F48073136240221C4BC3F824211C4E7C
S1130EA01C4D002402941C4B019301230093234600
S1130EB006F1140219492846194FB847102306F1C0
S1130EC0180221462846174CA047174B4FF480724E
S1130ED0C3F8842002F18042C3F8A8204FF04042B6
S1130EE0C3F8A82093F8C82002F0FE0242F00102E1
S1130EF083F8C82093F8B42002F0F00242F0010213
S1130F0083F8B42005B0F0BD00080040001C004088
S1130F10F000002028040020840400200020004366
S1130F20D51600007D17000000800041204B93F887
S1130F30442002F0FE0242F0010283F8442093F8B8
S1130F40322002F0F00242F00D0283F8322093F8CE
S1130F50452002F0FE0242F0010283F8452093F896
S1130F60322002F00F0242F0D00283F8322093F8CC
S1130F70462002F0FE0242F0010283F8462093F874
S1130F80332002F0F00242F00D0283F8332093F88C
S1130F90472002F0FE0242F0010283F8472093F852
S1130FA0332002F00F0242F0D00283F8332070475E
S1130FB000800041044AD36943F48043D361402252
S1130FC0024BC3F80421704700080040001C004095
S1130FD008B5034B9847034B9847034B984708BD04
S1130FE0B50F0000E92200002D0F000008B5084BE2
S1130FF04022C3F8AC20C3F8B020C3F8B420054A9B
S1131000936943F080039361034B984708BD00BF85
S1131010001C0040000800409118000030B45A4BF6
S11310204FF40065C3F88450584AC3F8A8205848C0
S1131030C3F8A80093F8CB2002F0FB0283F8CB207E
S113104093F8CB2002F0FE0242F0010283F8CB2099
S113105093F8B52002F00F0242F0700283F8B52035
S11310604FF480729A604B4999624FF040449C62FD
S11310705A6193F8482002F0FB0283F8482093F861
S1131080482002F0FE0242F0010283F8482093F85F
S1131090342002F0F00242F0070283F834204FF4C7
S11310A000729A6001F5807199629C625A6193F8AA
S11310B0492002F0FB0283F8492093F8492002F00A
S11310C0FE0242F0010283F8492093F8342002F032
S11310D00F0242F0700283F834204FF4806199606B
S11310E02D4A9A629C62596193F84A2002F0FB02ED
S11310F083F84A2093F84A2002F0FE0242F00102EB
S113110083F84A2093F8352002F0F00242F00702F7
S113111083F835209D60214A9A629C625D6193F850
S11311204B2002F0FB0283F84B2093F84B2002F093
S1131130FE0242F0010283F84B2093F8352002F0BE
S11311400F0242F0700283F83520C3F88410144A69
S1131150C3F8A820C3F8A80093F8CA2002F0FB0241
S113116083F8CA2093F8CA2002F0FE0242F001027A
S113117083F8CA2093F8B52002F0F00242F0070287
S113118083F8B52030BC704700800041000802405D
S1131190000002C0000100400004004000080040BC
S11311A000040240064B1A6942F400521A611A699B
S11311B042F400121A61DA6942F40052DA617047AB
S11311C00008004008B5044B984704490448054BFF
S11311D09847054B984708BDA5110000003400420C
S11311E080040020D11800001D1000002B4B0822A1
S11311F0C3F89420C3F8882002F18042C3F8A820E1
S11312004FF04042C3F8A82093F8C32002F0FE0236
S113121042F0010283F8C32093F8B12002F00F02D8
S113122042F0300283F8B1204FF080725A601C4AB9
S11312309A6202F1004202F580729A6293F8582091
S113124002F0FB0283F8582093F8582002F0FE02C3
S113125042F0010283F8582093F83C2002F0F00297
S113126042F0030283F83C204FF000725A619A6006
S11312704FF080429A620B4A9A6293F8592002F026
S1131280FE0242F0010283F8592093F83C2002F058
S11312900F0242F0300283F83C2070470080004186
S11312A000000240000200C0064B4022C3F80C219B
S11312B04322C3F88C20044A136A43F002031362E6
S11312C0704700BF001C00400008004008B5044BF4
S11312D0984704490448054B9847054B984708BD6F
S11312E0A912000000040043C80300203D1B0000B5
S11312F0ED110000044A536943F4804353614222D0
S1131300024BC3F8A420704700080040001C0040B2
S1131310044A536943F4004353614022024BC3F827
S1131320A420704700080040001C0040304B93F894
S1131330502002F0FE0242F0010283F8502093F89C
S1131340382002F0F00242F0050283F8382093F8C6
S1131350512002F0FE0242F0010283F8512093F87A
S1131360382002F00F0242F0500283F8382093F83C
S1131370522002F0FE0242F0010283F8522093F858
S1131380392002F0F00242F0050283F8392093F884
S1131390532002F0FE0242F0010283F8532093F836
S11313A0392002F00F0242F0500283F8392093F8FA
S11313B0542002F0FE0242F0010283F8542093F814
S11313C03A2002F0F00242F0050283F83A2093F842
S11313D0552002F0FE0242F0010283F8552093F8F2
S11313E03A2002F00F0242F0500283F83A2070478C
S11313F000800041044A936943F48053936140227E
S1131400024BC3F8E420704700080040001C004071
S113141010B5554B9847554B4FF480525A619A601A
S113142002F180429A624FF040429A6293F84C1063
S113143001F0FE0183F84C104FF40051596199609A
S113144001F1804199629A6293F84D1001F0FE0116
S113145083F84D104FF48041596199604FF0402159
S113146099629A6293F84E1001F0FE0183F84E10CF
S11314704FF400415961996001F1804199629A6287
S113148093F84F1001F0FE0183F84F104FF48001E0
S1131490596199604FF0804199623548986293F898
S11314A0560000F0FE0083F856004FF40000586028
S11314B0304C9C6204F1004480349C6293F85740A1
S11314C004F0FB0483F8574093F8574004F0FE04FB
S11314D083F857404FF000645C619C609962264C2D
S11314E09C6293F85B4004F0FE0483F85B400424A0
S11314F0C3F89840C3F8884004F18044C3F8A84076
S1131500C3F8A82093F8C22002F0FE0283F8C22098
S1131510C3F89400C3F88800C3F8A810174AC3F8A6
S1131520A82093F8D72002F0FE0283F8D720144BAA
S11315309847144B9847144B9847144B9847144BAF
S11315409847144B9847144B9847144B9847144B9F
S11315509847144B9847144B9847144B9847144B8F
S11315609847144B984710BD992300000080004110
S1131570400000C000000240000800C0800000C01D
S1131580910D0000890E0000D10F0000ED0F000046
S1131590C5110000CD120000F51200003530000026
S11315A011130000D1300000550D0000F5130000A8
S11315B02D130000AD2C000010B483B0047904F0A6
S11315C001041460027902F001021A6000230193FD
S11315D0002300938278C378DB0043EAC2230279B4
S11315E043EA521301939DED017AB8EE477ADFED99
S11315F0196AC7EE267A9FED187A67EE877AB2EEFB
S1131600047A77EE877ACDED007A009B0B609DED2E
S1131610007ADFED127AB4EEE77AF1EE10FA0FD920
S11316209DED007ADFED0E7A77EEC77A9FED0A7AA8
S113163077EE877AC1ED007A03B05DF8044B70470A
S11316409DED007ADFED067A77EEC77AC1ED007A78
S1131650F2E700BFE0FFFF480000B443EC51214231
S1131660D7A3F24108B5836903B1984708BD08B50B
S1131670C36903B1984708BD2DE9F047054688467C
S11316809146036A5B5C876A03EB4303DE00BC1983
S113169004F1040AD1B250460C4B984728460C4B2F
S11316A09847012807D94FEA19215046074B984714
S11316B0A38A0133A382A38A0133A382BB5913B142
S11316C0414628469847BDE8F08700BFE51E000064
S11316D0AD2200002DE9F84F894616461C469DF8B8
S11316E028800B9D074648B151B15AB1B8F1000F9B
S11316F00AD00DB1012008E0002006E0002004E03B
S1131700002002E0002000E00020DFF868B03F2263
S11317105946DFF864A0D047601C402259468045F2
S1131720CCBF00200120D047002303E0FF22F25465
S11317300133DBB2A342F9D93E6287F8244087F82B
S11317402580BD6249463846064B9847034628B96A
S1131750054ABA60054A3A60054A7A601846BDE807
S1131760F88F00BF9921000079160000651600006B
S11317706F16000008420000411E00002DE9F843E6
S11317800E46174698460546C0B1CAB1D3B90020E3
S1131790DFF89C9066224946234CA04795F8240024
S11317A067224946B04234BF00200120A047296A7D
S11317B08B5DFF2B2FD10024234607E00020E7E7B1
S11317C00020E5E70120E3E70133DBB295F82420AC
S11317D0934205D8CA5CFF2AF6D00134E4B2F3E799
S11317E095F825309C4219D8A86A04EB44034FEAC3
S11317F0C30948444246394604300C4B98470246D4
S113180078B92B6A9C55AB6A99440023A9F8143023
S11318101046BDE8F8836FF00C02F9E76FF01B0285
S1131820F6E76FF00C02F3E7411E0000A11E000072
S113183008420000EFF31083036072B6BFF35F8FBA
S11318407047BFF35F8F036883F31088704700000D
S113185010B5044B1C68044B984701462046034BC3
S1131860984710BD18010020552300009123000063
S113187010B5044B1C68044B984701462046034BA3
S1131880984710BD180100206D230000912300002B
S113189008B5014B984708BDF123000070B50D460B
S11318A01646044668B151B101203D220649074B52
S11318B098476368324629462046984770BD002001
S11318C0F3E70020F1E700BF24420000411E0000BE
S11318D038B50C46054660B149B1012031220649AC
S11318E0064B984721462846054B984738BD0020AB
S11318F0F4E70020F2E700BF38420000411E000078
S1131900D926000010B504463F220549003018BF0F
S11319100120044B98472046034B984710BD00BF55
S113192038420000411E00001127000038B50C4663
S1131930054660B149B101204D220649064B98473E
S113194021462846054B984738BD0020F4E700207F
S1131950F2E700BF38420000411E00001D270000CE
S1131960F8B50F461646044640F2271209490030DE
S113197018BF0120084B98470025A5616761E661FF
S11319802562102323720121A4F12000034B984700
S11319902846F8BD54420000411E00002D2B0000D3
S11319A070B50D461646044640F205120C49003047
S11319B018BF01200B4B9847A56100256561E661BE
S11319C0256210232372203C01212046064B9847B0
S11319D040F2FF112046054B9847284670BD00BFD2
S11319E054420000411E0000652B0000E12B000062
S11319F070B504460E46051F0021094B9847002187
S1131A002046084B984700212046074B984700235F
S1131A1084F82830236B13B131462846984770BDAB
S1131A202D2B0000652B0000A52B000038B5026C9F
S1131A30C36B9A4200D238BD051F04460021054BF2
S1131A409847002384F82830E36A002BF3D0284613
S1131A509847F0E7A52B000010B504460379012B45
S1131A600CD9426B036C591C016432F813100C4BF3
S1131A709847226CE36B9A4208D010BD426B036C0A
S1131A80591C0164D15C064B9847F2E700212046BB
S1131A90044B984701212046034B9847EDE700BFCC
S1131AA0E12B00002D2B0000A52B0000F8B5044607
S1131AB0071F856BFDB10379012B15D9066C731CC7
S1131AC003641B4B984725F81600236CE26B934282
S1131AD021D2626BD2B12179012912D932F81310C3
S1131AE02046144B9847F8BD066C731C0364104BD6
S1131AF09847A855E9E70E4B9847236C01332364B4
S1131B00E3E7D15C20460B4B9847F8BDE1882046BB
S1131B10084B9847F8BD00212046074B98470023FF
S1131B2084F82830E36A0BB138469847F8BD00BF03
S1131B30112C0000E12B0000652B000070B50D4650
S1131B40064638B321B30120A5221349134B984705
S1131B50344644F8045F29462046114B9847002830
S1131B6015DB104A002120460F4DA8470F4A0121DA
S1131B702046A8470E4A02212046A8470D4A0321C1
S1131B802046A8470C4BB3620C4B7362002070BD17
S1131B900020D9E70020D7E754420000411E00008E
S1131BA0912A0000591A0000412C0000AD1A0000CF
S1131BB02D1A0000F1190000A1190000611900009C
S1131BC010B50446C1220549003018BF0120044B5A
S1131BD09847201D034B984710BD00BF5442000096
S1131BE0411E0000F92A000070B50C461646054651
S1131BF050B101290AD9002040F2631209490A4B65
S1131C0098472CB92E6370BD0020F5E70120F3E757
S1131C106E63321C18BF01220321281D034B984711
S1131C2070BD00BF54420000411E0000752C00002E
S1131C3038B50D46044660B149B1012040F26F1237
S1131C400549064B984724342C60002038BD0020F9
S1131C50F4E70020F2E700BF54420000411E0000F8
S1131C60F8B5076817B13C4600260BE00E4B9847C1
S1131C70F8BDA5682B449B1A01338D68AB4209D289
S1131C802646246834B163689342F2D8A5689B1A47
S1131C902B44F2E7BC4203D03046044B9847F8BDCE
S1131CA0014B9847F8BD00BF5D1E0000891E00006F
S1131CB0F8B54469066901360661037E13F0010F25
S1131CC005D1037E13F0020F01D1054609E0037E1E
S1131CD043F002030376F8BD6F69E3682046984732
S1131CE03C469CB16368F31AA26893420ED305F193
S1131CF014073846064B9847237C012BECD16660C9
S1131D00324621463846034B9847E5E7F8BD00BF05
S1131D10911E0000611C000038B50D46044680B1D8
S1131D2069B101203B220849084B984729462046BF
S1131D30074B984700202061064B236038BD0020E4
S1131D40F0E70020EEE700BF74420000411E0000EF
S1131D50012E0000B11C000010B5044653220949AD
S1131D60003018BF0120084B98472046074B98477E
S1131D7020B92046064B9847002010BD6FF0100094
S1131D8010BD00BF74420000411E0000CD2F0000B2
S1131D90B92F000070B582B00D46044620B309B3D4
S1131DA001207A221F49204B9847237E43F00103E8
S1131DB0237604F11406294630461C4B9847A8B9EB
S1131DC023696B60226929463046194B9847237E64
S1131DD003F0FE032376237E13F0020F12D10020BA
S1131DE002B070BD0020DCE70020DAE7237E03F0B8
S1131DF0FE0323767F220B4900200B4B98476FF09C
S1131E001100EDE701A80B4B9847237E03F0FD0377
S1131E1023762046084B984701A8084B9847002092
S1131E20DEE700BF74420000411E0000471E0000B0
S1131E30611C000035180000E52F00004318000065
S1131E4000B900BE704703681BB18B4203D01B6806
S1131E50FAE70020704701207047000038B50446B7
S1131E600D46064B984780F0010039220449C0B260
S1131E70044B984723682B60256038BD471E00003B
S1131E808C420000411E000003680B600160704733
S1131E9003681BB11A680260184670470020704737
S1131EA070B50E461546044678B181B18AB9002052
S1131EB028220A490A4B98476B1E1D420BD16360C6
S1131EC00020A060E060266070BD0020F0E70020E4
S1131ED0EEE70120ECE76FF00C0070BDAC420000AF
S1131EE0411E000038B50D46044651220B4900300E
S1131EF018BF01200A4B98472268E36861680B40C9
S1131F00D554E368A2689A1A61688A4201D9591AB9
S1131F10A1600133E360002038BD00BFAC42000083
S1131F20411E000000F13D40A0F5E050C0F38720C1
S1131F307047000008B54069034B98474000C0B2A1
S1131F40763000F0FE0008BD251F0000064B9842C5
S1131F5003D0064B984203D07047054B1960F8E74D
S1131F60034B5960F8E700BF001C00430020004306
S1131F701C01002010B4604B984200F09C805F4B21
S1131F80984200F0A8800022036B13F0010F1BD1CC
S1131F90036B13F0030FFBD1038813F0020F0DD072
S1131FA003889BB223F002039BB20380036B13F0FC
S1131FB0030FFBD1036B13F0020FFBD1012303804A
S1131FC0036B13F0030FFBD1036B13F0010FFBD171
S1131FD0A0F8482016234A4A03FB01239B88C380A8
S1131FE0036BC3F30B03002BFAD11623444A03FB00
S1131FF001239B790372036BC3F30B03002BFAD108
S113200016233F4A03FB0123DA7982701B898380FC
S1132010036BC3F30B03002BFAD11623384A03FBDB
S113202001239B7A8372036BC3F30B03002BFAD156
S11320301623334A03FB0123DB7AC372036BC3F316
S11320400B03002BFAD116232D4A03FB01239B8992
S11320508381036B13F0800FFBD11623284A03FB03
S11320600123DB89C381036B13F4807FFBD1162327
S1132070234A03FB01231B8A0382036B13F4007FAF
S1132080FBD116231E4A03FB01235B8A4382036BA5
S113209013F4806FFBD11622194B02FB01310B7D27
S11320A0C3704B880380036B13F0030FFBD1002034
S11320B05DF8044B70474FF080131B685A091202F5
S11320C002F4E0621C0A240104F070042243C3F306
S11320D082031A4358E74FF080131B68DA0C12028C
S11320E002F4E0629C0D240104F070042243C3F363
S11320F002431A4348E700BF001C0043002000438A
S1132100D042000008B5426992F82E1092F82D30A2
S11321100B4013F0010F06D113F0020F0DD113F091
S1132120040F11D108BD012382F82E308368B2F860
S1132130402092B20021984708BD022382F82E3035
S113214043680021984708BD042382F82E300368B1
S113215000219847E6E7000008B50B4B9847002399
S1132160012B09D8162202FB03F208498A5C90422B
S113217008D00133DBB2F3E78C2205490020054B7C
S113218098470023184608BD251F0000D0420000D0
S1132190FC420000411E00002DE9F0410D460446BA
S11321A0F1223B49003018BF01203A4B984728469A
S11321B0394B984701462846384B9847064610B194
S11321C03046BDE8F081656121462846344B984786
S11321D02046344FB847430900F01F00012505FA93
S11321E000F0DFF8C480203348F82300BFF34F8F9A
S11321F0BFF36F8F2046B847430900F01F0005FA6C
S113220000F0603348F823002046B847430900F043
S11322101F00854048F823502046B84780B201305B
S113222080B203B2002B0CDB5B0900F01F0001221B
S113223002FA00F0203348F82300BFF34F8FBFF3B6
S11322406F8F2046174B984780B2013080B203B29B
S1132250002B09DB5B0900F01F00012202FA00F0E9
S11322606033114A42F8230020460E4B984780B24F
S1132270013080B203B2002BA2DB5B0900F01F0027
S1132280012202FA00F0084A42F8230098E700BF4E
S1132290FC420000411E000059210000751F00008F
S11322A04D1F0000351F000000E100E04369DB889A
S11322B0C3F3C103032B01D00220704701207047F0
S11322C008B5024B1868024B984708BD1C01002052
S11322D00521000008B5024B5868024B984708BD19
S11322E01C01002005210000114A00231370012164
S11322F0117009E00F4A1A44117C03F1844202F57B
S1132300605211710133DBB2012BF3D9002308E0D1
S1132310084A52F82300991C054A42F82100013367
S1132320DBB2032BF4D90020014B1870704700BFB7
S11323300038004214430000430900F01F0001224A
S113234002FA00F04033024A42F82300704700BF0B
S113235000E100E0642303FB00F00230024BA3FB26
S113236000304008704700BFABAAAAAA642303FB4D
S113237000F302330448A0FB03235B084FF47A7094
S113238000FB03F0704700BFABAAAAAA000000003C
S11323900139FDD8704700BF10B50E4A13889BB2AF
S11323A013800D4B98470D4B98470D4B98471220BF
S11323B00C4CA0470C4B984740F6ED70A0470B4BD4
S11323C0DA6A42F08702DA62D3F8AC20C3F8AC20B0
S11323D010BD00BF00400041D9240000ED240000DE
S11323E0CD24000055240000F124000000800041A9
S11323F0002308E0154AD05C03F14801144A42F86E
S113240021000133DBB2422BF4D900231F2B1BD84C
S113241010B40E4A02EB4301B1F844400C49181DB4
S113242041F8304002EB830292F8842001EBC001B2
S11324304A71D243D2B20A710133DBB21F2BE8D9FD
S113244000205DF8044B70470020704728430000CB
S113245000E0004110F0010F08D0174A174B1A6230
S1132460164B5A6843F6FD731A42F9D110F0020F65
S113247008D0134A114B5A62104B5A6843F6FD7345
S11324801A42F9D110F0040F08D00E4A0B4B9A628D
S11324900A4B5A6843F6FD731A42F9D110F0100F33
S11324A008D0094A054B1A63044B5A6843F6FD7376
S11324B01A42F9D1704700BF08010100001C004016
S11324C0040101000601180006010F000122014B5E
S11324D05A71704700080040034BDA6902F47C52D9
S11324E0DA6101221A74704700140040704700003A
S11324F0474A136A23F00F0343F004031362444B67
S11325005A6843F6FD731A42F9D1414B5B6813F0E4
S1132510040FFAD13F4B00221A773F4A9A623D4B8F
S113252093F82C3013F0100FF9D10022394B83F8B3
S11325302020384B93F82C3013F0040FF9D10222E9
S1132540344B1A77334B93F82C3013F0020FF9D134
S1132550304B5A6A5A622F4B93F82C3013F0080F01
S1132560F9D180222B4B83F820202A4B93F82C306E
S113257013F0040FF9D14422254BC3F88820274ACD
S1132580A3F540639A64234B1B6D13F0060FFAD135
S1132590204B0022DA64022283F844201D4B1B6D79
S11325A013F0020FFAD11B4B93F8203013F0010FF4
S11325B027D0184B1B6903F41063B3F5106FF8D1DF
S11325C0144B5B6D13F0010F04D1124B5B6D13F0D0
S11325D0020FF5D00E4B5B68002BFBD10C4A136A3B
S11325E023F00F0343F008031362094B5A6843F6C0
S11325F0FD731A42F9D1064B5B6813F0040FFAD14C
S11326007047044B1B6913F4807FFAD0D8E700BFEE
S1132610001C004000100040000001041E000800DF
S113262004E00A7802701A4601310130531E002A70
S1132630F7D1704703680A7812F0200F01D08A6836
S11326401A630A7812F0100F05D00A79586B20F03B
S1132650FF0002435A630A7812F0400F06D048790B
S11326605A6B22F47F0242EA00425A630A689A6370
S11326707047000038B50C4603680A7812F0200F42
S113268015D08D6805F180659B6B236993B101209A
S113269082220E490E4B9847216989B1E268284687
S11326A00C4B9847BFF34F8FBFF36F8F38BD4FF07C
S11326B08065E9E763690BB10120E9E70020E7E7FA
S11326C0E26829466069034B9847EBE72C44000015
S11326D0411E00002126000038B50C46054688B18D
S11326E071B1012040220849084B98472C6001230E
S11326F02360112363604FF41063A360002038BD8E
S11327000020EFE70020EDE72C440000411E00000C
S1132710036802221A6000207047000038B504469E
S11327200D460C4B984795F90030002B0CDB2368C1
S1132730094A1A602368DA6912F4806FFAD04FF4F8
S11327408062DA61002038BD29462046034B984751
S1132750EDE700BF352600000200000175260000E9
S113276000B583B00D4B9B78DBB20193019B13F052
S1132770020F06D00A4B1B681BB1084A50689847E1
S113278009E0019B13F0010F05D0054B5B6813B101
S1132790024A5068984703B05DF804FB0000024108
S11327A09C04002070B487B006466C460C4D0FCDD7
S11327B00FC495E8030084E80300002005280AD824
S11327C006AB03EB800353F8183CB34201D001304D
S11327D0F4E7C0B200E0002007B070BC704700BF4F
S11327E044440000034B984200D07047024B1960E8
S11327F0FBE700BF000400432401002008B5044B9C
S113280098478000C0B22E3000F0FE0008BD00BF23
S1132810A5270000C36913F0010F09D1036843F031
S113282002030360C36913F0030FFBD10020704758
S11328306FF003007047000010B504460B4B984737
S113284020460B4B984700220BE0411C440900F042
S11328501F00012303FA00F0064B43F82400013261
S1132860C8B2032AF1D9002010BD00BF152800000A
S1132870FD27000000E100E008B50268117E937DA9
S11328800B4013F0010F09D113F0040F09D113F019
S1132890020F09D113F0800F0BD108BD836898474C
S11328A008BDC368984708BD022313760369984797
S11328B008BD042353838023137643696FF0120108
S11328C09847EAE708B5024B1868024B984708BDD9
S11328D0240100207928000008B5024B1868024B37
S11328E0984708BD240100207928000008B5024B50
S11328F01868024B984708BD24010020792800007D
S113290008B5024B1868024B984708BD2401002003
S11329107928000070B506460C460846584B98477F
S11329200023002B68D00025002E71D0002C6DD020
S1132930012040F67C125349534B9847002D00F078
S11329409C80E36913F0010F1DD12B6803F01C0276
S1132950E36913F0030FFBD1236813F0020F0BD0CC
S1132960236823F002032360E36913F0030FFBD110
S1132970E36913F0020FFBD142F001022260E36924
S113298013F0030FFBD1E36913F0010FFBD13460A3
S11329902B6803F01C03082B3CD0002C69D0002DBD
S11329A065D0012040F60F123649374B98472B6803
S11329B023F4817323F001032360E36913F0030F0D
S11329C0FBD16B6823F4383323F4107343F40033DE
S11329D06360E36913F0170FFBD12B7B23736B7BCD
S11329E084F830306B6813F0070F44D1012333713E
S11329F0EB89F380002070BD052802D00133DBB2DF
S1132A008FE703EB0315214B1D448DE7002090E76E
S1132A1000208EE74CB335B3012040F62312194948
S1132A20194B98472B6823F4817323F00103236027
S1132A30E36913F0030FFBD16B6823F4083323F429
S1132A40107343F4003343F410736360E36913F0C9
S1132A50170FFBD1AB6863626B7B84F83030E3699A
S1132A60002BFCD1BEE70020D7E70020D5E70020EB
S1132A7098E7002096E70223B9E76FF00C0070BDD9
S1132A80A5270000B0440000411E00009C44000043
S1132A9070B505460E46144B9847002823DB29469B
S1132AA03046124B984700242C61EC60AC603046F1
S1132AB00F4B9847214613E0430900F01F040122FD
S1132AC0A2400C4C03F1200544F82520BFF34F8F9E
S1132AD0BFF36F8F603344F823200130C0B201315B
S1132AE00329E9D9002070BD15290000E52700005D
S1132AF0FD27000000E100E010B5044668B103685A
S1132B004BB1012040F6E9120549064B984720686D
S1132B10054B984710BD0020F4E70020F2E700BF02
S1132B20B0440000411E00003928000038B50D46AD
S1132B30046868B154B1012040F60C320749084BCF
S1132B4098473DB901232375002038BD0020F3E7E1
S1132B500020F1E70123A375F6E700BFB0440000AD
S1132B60411E0000F8B50F4604680C4E4FF4326263
S1132B703146003018BF0120094DA84740F62132E4
S1132B803146201C18BF0120A8471FB90423237510
S1132B900020F8BD0423A375FAE700BFB044000089
S1132BA0411E000038B50D46044678B103685BB198
S1132BB0012040F633320849084B984745B9236849
S1132BC002221A75002038BD0020F2E70020F0E749
S1132BD0236802229A75F5E7B0440000411E000004
S1132BE038B50D46044668B103684BB1012040F680
S1132BF045320549054B984723689D62002038BD3E
S1132C000020F4E70020F2E7B0440000411E000079
S1132C1010B5044668B103684BB101204FF4366225
S1132C200549064B98472368986A80B210BD002076
S1132C30F4E70020F2E700BFB0440000411E0000AA
S1132C4070B50D461646044660B103290CD9002020
S1132C5040F679320549064B9847083444F8256014
S1132C60002070BD0020F3E70120F1E7B04400002C
S1132C70411E000070B50C461546064640F6BA32B1
S1132C800849003018BF0120074B9847032C00D097
S1132C9070BD336815B180229A75F9E780221A75E0
S1132CA070BD00BFB0440000411E00002B4B9B6868
S1132CB013F0010F20D1294B9B6813F0030FFAD1B5
S1132CC0264B1B6813F0020F0ED0244A136823F01E
S1132CD002031360214B9B6813F0030FFAD11F4BBF
S1132CE09B6813F0020FFAD101221C4B1A601B4B94
S1132CF09B6813F0030FFAD1184B9B6813F0010F74
S1132D00FAD1164B01229A7740F2D2725A64134BCD
S1132D109B6813F47C5FFAD10722104BDA630F4BE4
S1132D209B68C3F30D03002BF9D140F2D2720B4B15
S1132D301A640A4B9B6813F0800FFAD1074B4FF0CB
S1132D4001221A621A6842F002021A60034B9B685D
S1132D5013F0030FFAD10020704700BF0080014137
S1132D6008B5C3689A7A12F0010F00D108BD012298
S1132D709A7203689847F9E7034B984200D070476A
S1132D80024B1960FBE700BF00A0014128010020AD
S1132D9010B584B00446174B0FCB0DF1100E0EE99D
S1132DA00F000023032B0AD804AA02EB830252F873
S1132DB0102CA24201D00133F4E7DBB200E000237F
S1132DC000224AB14FF4A0720B4900200B4B9847E4
S1132DD04FF0FF3004B010BD02EB820188000549BA
S1132DE00144097C994202D00132D2B2E9E750B2DF
S1132DF0F0E700BFCC440000F0440000411E000096
S1132E0070B506460C460846654B98470546F4607F
S1132E10912264490120644B9847236913F0010F00
S1132E2019D1236913F0030FFBD1236813F0020FA8
S1132E300BD0236823F002032360236913F0030FEC
S1132E40FBD1236913F0020FFBD101232360236913
S1132E5013F0030FFBD1236913F0010FFBD105EB32
S1132E6085039A00514B13445B692360236913F073
S1132E70030FFBD1AA002A4491004C4B0B449A7EC9
S1132E80E2731A8BE280012222735B6903F00C0364
S1132E90082B56D0002B63D105EB85039A00434BD6
S1132EA013449B8BA383236913F0C00FFBD100232E
S1132EB0E383236913F0C00FFBD10123637231460E
S1132EC020463B4B984705EB85039A00374B134448
S1132ED0B3F91230002B0DDB5A0903F01F03012153
S1132EE001FA03F32032334941F82230BFF34F8F04
S1132EF0BFF36F8F05EB85039A002C4B1344B3F992
S1132F001230002B09DB5A0903F01F03012101FAD7
S1132F1003F36032274941F8223005EB8505AA0006
S1132F20224B1344B3F91230002B08DB590903F088
S1132F301F03012202FA03F31E4A42F82130002043
S1132F4070BD1A4B0B44DB69E361236913F0C00FB6
S1132F50FBD100232362236913F0C00FFBD1ACE73C
S1132F60042BAAD105EB85039A00104B13441B7F55
S1132F702377236913F0C00FFBD100236377236900
S1132F8013F0C00FFBD105EB85039A00074B1344E4
S1132F90DB7EE376236913F0200FFBD18DE700BFBE
S1132FA0912D0000F0440000411E0000CC440000BC
S1132FB0792D000000E100E0C268136843F00203C9
S1132FC01360136913F0030FFBD17047C2681369D0
S1132FD013F0030FFBD11068C0F3400070470020CA
S1132FE07047000010B5C068084B9847044640F28B
S1132FF0131207490120074B984704EB8404A200ED
S1133000054B1344987C054B984710BD912D000047
S1133010F0440000411E0000CC44000039230000AD
S113302008B5024B1868024B984708BD28010020D8
S1133030612D0000254B1B6913F0010F20D1234B98
S11330401B6913F0030FFAD1204B1B6813F0020F16
S11330500ED01E4A136823F0020313601B4B1B6936
S113306013F0030FFAD1194B1B6913F0020FFAD1B5
S11330700122164B1A60154B1B6913F0030FFAD18A
S1133080124B1B6913F0010FFAD14FF441320F4B6D
S11330901A600E4B1B6913F0030FFAD10B4B00227D
S11330A05A71FF221A710122DA732522DA80112261
S11330B05A72EE221A721A6842F002021A60034B24
S11330C01B6913F0030FFAD1002070470038004049
S11330D02A4B1B6913F0010F20D1284B1B6913F0F5
S11330E0030FFAD1254B1B6813F0020F0ED0234AAD
S11330F0136823F002031360204B1B6913F0030FC2
S1133100FAD11E4B1B6913F0020FFAD101221B4B9B
S11331101A601A4B1B6913F0030FFAD1174B1B6982
S113312013F0010FFAD14FF48062144B1A60134B61
S11331301B6913F0030FFAD1104B00225A71FF22BE
S11331401A7101221A73DA7341F669029A830B4BDE
S11331501B6913F0C00FFAD1084B0522DA80012253
S11331605A72FE221A721A6842F002021A60034B63
S11331701B6913F0030FFAD100207047003C004094
S113318008B5054B9847054B9847054B98474FF0B2
S11331900062044BDA6108BD4D39000009390000B2
S11331A0613900000080004110B5094A134601212D
S11331B043F8041B0748083201460430064CA04774
S11331C00A20064B98470422054BC3F8982010BDEB
S11331D0040000202C010020B91500005118000043
S11331E000800041194B9B7A13F0100F15D1174B37
S11331F09B7A13F0010F21D0144B9A7A42F001020A
S11332009A729A8B92B212490A80DB8B9BB2114A52
S113321013804FF6FF730B8010E00C4B9A8B92B225
S11332200B490A80DA8B92B20A490A809A7A42F0F0
S113323010029A729A7A42F020029A72064B012284
S1133240DA601A740222014B9A7270470038004007
S1133250D8040020C40400202C0100201F4B9B88AC
S11332609BB2B3F5C07F23D01C4BB3F8402092B27D
S11332701B490A801B4AB2F8402092B21A490A80BC
S11332804FF4C0729A801A7D42F001021A75154BF0
S11332901B6B13F4006FFAD10122144B1A76FF232F
S11332A00E4A82F82E3002F5806282F82E30704782
S11332B00A4BB3F8402012B20D490A8041F60302CA
S11332C09A801A7D42F001021A75044B1B6B13F4A9
S11332D0006FFAD10122054B5A61E0E7001C00435C
S11332E0B804002000200043DA0400202C01002050
S11332F0CC04002070470000052820D8DFE800F047
S113330019161C0B0E030F4BD3ED007AF1EE677AFE
S113331017EE900A70470B4B186870470A4BD3EDB1
S1133320007AF1EE677A17EE900A7047064B186838
S11333307047054B18687047024B186870470020A7
S1133340704700BFBC040020F80400200000000007
S11333502DE9F0412DED028B82B0A74B9847A74A87
S1133360137843F002031370A54B1A686FF34102FC
S11333701A605A69022161F301025A611A680A4308
S11333801A60A04BDA886FF34102DA809E4AD18832
S11333906FF34101D18041F60301998093F82D1018
S11333A041F0010183F82D10997841F010019970D2
S11333B0188840F002011980937843F01003937049
S11333C0118841F002031380904B9847904B984723
S11333D0904B9847904B9847904B9847904C4FF49C
S11333E08003A361A3604FF08043A3628D4BA3626B
S11333F08D4B4FF40062DA60602283F877234FF438
S11334000001D96083F879234FF00072DA6062B664
S1133410864D01A92846864B9847864A00212846AE
S1133420854B98472846854B98470423C4F8983021
S1133430834B98478348844B98471920834B98477C
S1133440834B9847834B9847834901234B62834AB4
S11334508A6281F82C30824C1C312046814B98477B
S11334602046814B98478148814B984743E1814BE3
S11334701B68012B40F0448100237E4A1360764C84
S1133480E3600422664BC3F894200A207A4B9847E1
S11334900722211D0198794B984731E16E4D002395
S11334A06B61774B1B881BB207EE903AF8EEE77A14
S11334B0B1EE0C7A77EEC77A17EE900A714B984703
S11334C0714C45A3D3E90023A04745A3D3E90023C6
S11334D0A04700226D4BDFF8DC81C04700224FF08B
S11334E07D53A0476A4B984728630EE1694B1888BF
S11334F080B2DFF8D081A0F24E70C047624C3AA38C
S1133500D3E90023A0470022634BA0470022634B6A
S1133510A0470022624BA0475D4DA847614B18604D
S1133520614B188880B2A0F24E70C0472EA3D3E935
S11335300023A0470022584BA04701F10047002276
S1133540564B3946A0470022554BA047A847574B36
S11335501860414B00221A76012283F83420DAE005
S1133560534B1B889BB24FF6FF7293422ED0504BA5
S1133570188880B207EE900AF8EE677A17EE900A80
S1133580404B98474B4C02460B4619A1D1E9000128
S1133590A0470022484B3C4DA8470022474BA04778
S11335A03B4B98472C4B98632B4C94ED0E8AB1EE11
S11335B0488A434B984707EE900AF8EEE77A28EEDC
S11335C0278A84ED0E8A00232374AAE00022224B6A
S11335D09A63E9E7AFF30080333333333333FB3F8C
S11335E09A99999999ACA7406666666666660A4098
S11335F00000000060E36641D10200000038004290
S113360000800141001C004300200043A903000086
S1133610A5040000D90400000D05000041050000C8
S113362000800041400000C000E100E0C803002029
S1133630311C0000A9310000E91B0000C11B00007F
S11336406D38000080040020051900007118000086
S11336501D390000313900002C01002081310000A7
S1133660AC030020951D0000591D00000000A0417E
S11336703104000004000020511800009D180000CF
S1133680CC0400203D3C0000E53C000000208640C6
S113369009410000B80400200000303F000024402D
S11336A00000D03FBC040020DA040020F80400200D
S11336B0D8040020393F000000004E40000045407F
S11336C0C90C0000193C0000544B9847544B186C2B
S11336D0544B98470FE0544B9847F7E7534B9847A0
S11336E0F4E7534B9847F1E700224D4B1A64EDE79A
S11336F000204C4B98474A4BDB68012B3FF4B7AE94
S1133700474B5B69012B3FF4C9AE454B1B7EDBB2D3
S1133710012B3FF4EBAE424B1B7CDBB2012B3FF49D
S11337201FAF444DA847444B98473D4CE063A8471E
S113373080B2424B588022685A60A26B9A60404A19
S113374012689A613F4A12685A61E26B1A61226BED
S1133750DA60226C5A62226C9A623B4B1A8892B2EB
S11337603A490A805A8892B239490A801969394A11
S113377011603949516139499161596B5160996BB3
S11337809160D968364A116099695161D3ED067A1E
S1133790F1EE677AC2ED067AD96A5160196B9160CD
S11337A05968304A116059695161D3ED057AF1EED7
S11337B0677AC2ED067AD9695160196A916099688D
S11337C0294A116099695161D3ED067AF1EE677A5D
S11337D0C2ED067A596A51609B6A936094F834305A
S11337E0DBB2012B84D1194B1B889BB2012B7FF4D4
S11337F07FAF002284F83420154B1B889BB2032B27
S11338003FF672AF01A252F823F000BFC9360000A0
S1133810D7360000DD360000E336000085070000DF
S11338202C010020810600007D080000CD09000065
S1133830750B0000BD0C0000F9320000EC01002003
S1133840BC040020F80400202C020020E004002026
S1133850F00400205003002000004842000048C249
S1133860340300206C030020F402002030B4204B09
S113387000221A705A709A704021D9701A715A71C4
S11338809A71DA711A725A729A72D9721A7310246E
S11338905C739973DA731A745A749A748020D874A6
S11338A01A7518255D759975DA751A765A769A76A9
S11338B0D8761A775C779977DA7783F8202083F8BB
S11338C0212083F8222083F823005A629A62DA6264
S11338D01A635A639A63DA631A645A649A64DA64F8
S11338E01A655A659A65DA651A6630BC704700BF76
S11338F0C801002008B501460148024B984708BD9D
S1133900800400202D19000008B50248024B984796
S113391008BD00BF14000020F538000008B50248B7
S1133920024B984708BD00BF2C000020F53800006A
S113393038B5044D05F13000034CA04705F14800AB
S1133940A04738BD14000020F538000008B502482F
S1133950024B984708BD00BF74000020F5380000F2
S113396008B50248024B984708BD00BF8C000020F0
S1133970F538000081F0004102E000BF83F000430D
S113398030B54FEA41044FEA430594EA050F08BFF6
S113399090EA020F1FBF54EA000C55EA020C7FEABA
S11339A0645C7FEA655C00F0E2804FEA5454D4EB37
S11339B05555B8BF6D420CDD2C4480EA020281EA01
S11339C0030382EA000083EA010180EA020281EA39
S11339D00303362D88BF30BD11F0004F4FEA01318B
S11339E04FF4801C4CEA113102D0404261EB41019A
S11339F013F0004F4FEA03334CEA133302D0524220
S1133A0063EB430394EA050F00F0A780A4F10104DB
S1133A10D5F1200E0DDB02FA0EFC22FA05F2801815
S1133A2041F1000103FA0EF2801843FA05F35941FB
S1133A300EE0A5F120050EF1200E012A03FA0EFC7A
S1133A4028BF4CF0020C43FA05F3C01851EBE371A4
S1133A5001F0004507D54FF0000EDCF1000C7EEBC1
S1133A6000006EEB0101B1F5801F1BD3B1F5001FFF
S1133A700CD349085FEA30004FEA3C0C04F101041E
S1133A804FEA445212F5800F80F09A80BCF1004F47
S1133A9008BF5FEA500C50F1000041EB045141EAC9
S1133AA0050130BD5FEA4C0C404141EB010111F4CA
S1133AB0801FA4F10104E9D191F0000F04BF014675
S1133AC00020B1FA81F308BF2033A3F10B03B3F153
S1133AD020020CDA0C3208DD02F1140CC2F10C02E3
S1133AE001FA0CF021FA02F10CE002F11402D8BF41
S1133AF0C2F1200C01FA02F120FA0CFCDCBF41EA0D
S1133B000C019040E41AA2BF01EB0451294330BDDB
S1133B106FEA04041F3C1CDA0C340EDC04F11404B8
S1133B20C4F1200220FA04F001FA02F340EA03008F
S1133B3021FA04F345EA030130BDC4F10C04C4F1D5
S1133B40200220FA02F001FA04F340EA03002946B5
S1133B5030BD21FA04F0294630BD94F0000F83F4FF
S1133B60801306BF81F480110134013D4EE77FEAE2
S1133B70645C18BF7FEA655C29D094EA050F08BF2E
S1133B8090EA020F05D054EA000C04BF194610460F
S1133B9030BD91EA030F1EBF0021002030BD5FEA53
S1133BA0545C05D14000494128BF41F0004130BD7B
S1133BB014F580043CBF01F5801130BD01F00045CF
S1133BC045F0FE4141F470014FF0000030BD7FEA42
S1133BD0645C1ABF194610467FEA655C1CBF0B463D
S1133BE0024650EA013406BF52EA033591EA030F54
S1133BF041F4002130BD00BF90F0000F04BF00214C
S1133C00704730B54FF4806404F132044FF000057E
S1133C104FF0000150E700BF90F0000F04BF0021F7
S1133C20704730B54FF4806404F1320410F000455D
S1133C3048BF40424FF000013EE700BF42004FEA58
S1133C40E2014FEA31014FEA02701FBF12F07F43D5
S1133C5093F07F4F81F06051704792F0000F14BFD2
S1133C6093F07F4F704730B54FF4607401F0004516
S1133C7021F0004120E700BF50EA010208BF70476D
S1133C8030B54FF000050AE050EA010208BF704762
S1133C9030B511F0004502D5404261EB41014FF4CB
S1133CA0806404F132045FEA915C3FF4DCAE4FF0CF
S1133CB003025FEADC0C18BF03325FEADC0C18BFB6
S1133CC0033202EBDC02C2F1200300FA03FC20FA07
S1133CD002F001FA03FE40EA0E0021FA02F1144454
S1133CE0C1E600BF70B54FF0FF0C4CF4E06C1CEA69
S1133CF011541DBF1CEA135594EA0C0F95EA0C0FDE
S1133D0000F0DEF82C4481EA030621EA4C5123EA50
S1133D104C5350EA013518BF52EA033541F480117F
S1133D2043F4801338D0A0FB02CE4FF00005E1FB32
S1133D3002E506F00042E0FB03E54FF00006E1FB7C
S1133D4003569CF0000F18BF4EF0010EA4F1FF04BF
S1133D50B6F5007F64F5407404D25FEA4E0E6D41FF
S1133D6046EB060642EAC62141EA55514FEAC52010
S1133D7040EA5E504FEACE2EB4F1FD0C88BFBCF58C
S1133D80E06F1ED8BEF1004F08BF5FEA500E50F13D
S1133D90000041EB045170BD06F0004646EA010103
S1133DA040EA020081EA0301B4EB5C04C2BFD4EB35
S1133DB00C0541EA045170BD41F480114FF0000E2E
S1133DC0013C00F3AB8014F1360FDEBF002001F09C
S1133DD0004170BDC4F10004203C35DA0C341BDC16
S1133DE004F11404C4F1200500FA05F320FA04F0E8
S1133DF001FA05F240EA020001F0004221F000411C
S1133E0010EBD37021FA04F642EB06015EEA430E8E
S1133E1008BF20EAD37070BDC4F10C04C4F12005BE
S1133E2000FA04F320FA05F001FA04F240EA020071
S1133E3001F0004110EBD37041F100015EEA430E42
S1133E4008BF20EAD37070BDC4F1200500FA05F262
S1133E504EEA020E20FA04F301FA05F243EA0203E1
S1133E6021FA04F001F0004121FA04F220EA0200F0
S1133E7000EBD3705EEA430E08BF20EAD37070BD36
S1133E8094F0000F0FD101F00046400041EB010116
S1133E9011F4801F08BF013CF7D041EA060195F0F8
S1133EA0000F18BF704703F00046520043EB0303B2
S1133EB013F4801F08BF013DF7D043EA060370479F
S1133EC094EA0C0F0CEA135518BF95EA0C0F0CD0AA
S1133ED050EA410618BF52EA4306D1D181EA0301F0
S1133EE001F000414FF0000070BD50EA410606BFEA
S1133EF01046194652EA430619D094EA0C0F02D12F
S1133F0050EA013613D195EA0C0F05D152EA033673
S1133F101CBF104619460AD181EA030101F0004191
S1133F2041F0FE4141F470014FF0000070BD41F0DA
S1133F30FE4141F4780170BD70B54FF0FF0C4CF4B4
S1133F40E06C1CEA11541DBF1CEA135594EA0C0FD3
S1133F5095EA0C0F00F0A7F8A4EB050481EA030E20
S1133F6052EA03354FEA013100F088804FEA033307
S1133F704FF0805545EA131343EA12634FEA0222D5
S1133F8045EA111545EA10654FEA00260EF0004196
S1133F909D4208BF964244F1FD0404F5407402D2E8
S1133FA05B084FEA3202B61A65EB03055B084FEA79
S1133FB032024FF480104FF4002CB6EB020E75EB76
S1133FC0030E22BFB61A754640EA0C005B084FEA9E
S1133FD03202B6EB020E75EB030E22BFB61A75461B
S1133FE040EA5C005B084FEA3202B6EB020E75EB66
S1133FF0030E22BFB61A754640EA9C005B084FEADE
S11340003202B6EB020E75EB030E22BFB61A7546EA
S113401040EADC0055EA060E18D04FEA051545EAD9
S113402016754FEA06164FEAC30343EA52734FEA82
S1134030C2025FEA1C1CC0D111F4801F0BD141EAFB
S113404000014FF000004FF0004CB6E711F4801F60
S113405004BF01430020B4F1FD0C88BFBCF5E06F40
S11340603FF6AFAEB5EB030C04BFB6EB020C5FEA50
S1134070500C50F1000041EB045170BD0EF0004EA5
S11340804EEA113114EB5C04C2BFD4EB0C0541EAD7
S1134090045170BD41F480114FF0000E013C90E6D4
S11340A045EA060E8DE60CEA135594EA0C0F08BF98
S11340B095EA0C0F3FF43BAF94EA0C0F0AD150EA97
S11340C001347FF434AF95EA0C0F7FF425AF10462A
S11340D019462CE795EA0C0F06D152EA03353FF452
S11340E0FDAE1046194622E750EA410618BF52EACF
S11340F043067FF4C5AE50EA41047FF40DAF52EAA3
S113410043057FF4EBAE12E74FEA4102B2F1E0431C
S113411024BFB3F5001CDCF1FE5C0DD901F0004CAA
S11341204FEAC0024CEA5070B2F1004F40EB8300FA
S113413008BF20F00100704711F0804F21D113F126
S11341403872BCBF01F00040704741F480114FEA5F
S11341505252C2F11802C2F1200C10FA0CF320FAE8
S113416002F018BF40F001004FEAC1234FEAD32305
S113417003FA0CFC40EA0C0023FA02F34FEA43036F
S1134180CCE77FEA625307D150EA01331EBF4FF0F8
S1134190FE4040F44000704701F0004040F0FE4013
S11341A040F40000704700BF70B50D4E0D4CA41BC9
S11341B0A4100025A54209D10B4E0C4C00F0A2F925
S11341C0A41BA4100025A54205D170BD56F82530C6
S11341D098470135EEE756F8253098470135F2E760
S11341E01045000010450000104500001445000073
S11341F02D082D20362036101B101B0836101B10DE
S11342001B082D082D2036202E2E2F68616C2F734D
S113421072632F68616C5F6164635F6173796E635D
S11342202E6300002E2E2F68616C2F7372632F682B
S1134230616C5F696F2E63002E2E2F68616C2F7383
S113424072632F68616C5F717370695F73796E63F9
S11342502E6300002E2E2F68616C2F7372632F68FB
S1134260616C5F7370695F6D5F6173796E632E63F8
S1134270000000002E2E2F68616C2F7372632F686C
S1134280616C5F74696D65722E6300002E2E2F6859
S1134290616C2F7574696C732F7372632F757469F5
S11342A06C735F6C6973742E630000002E2E2F688C
S11342B0616C2F7574696C732F7372632F757469D5
S11342C06C735F72696E676275666665722E6300F1
S11342D00000000002000312031833030000000072
S11342E00000000001000100000002000312001899
S11342F03303000000000000000001002E2E2F6890
S1134300706C2F6164632F68706C5F6164632E63EB
S11343100000000012444416004404000044040059
S11343200044040000000000000100000000000040
S11343300000000000000000000000000000000079
S11343400000000000000000000000000000000069
S11343500000000001000000000000000000000256
S11343600002000000000000000000007404320697
S1134370740C0000000000000000000000000000B9
S11343800000000000000000000000000000000029
S11343900000000000000000000000000000000019
S11343A00000000000000000000000000200000007
S11343B002000000000000000000000000000000F7
S11343C000000000000000000000000000000000E9
S11343D000000000000000000000000000000000D9
S11343E000000000000000000000000000000000C9
S11343F000000000000000000000000000000000B9
S113440000000000000000000000000000000000A8
S11344100000000000000000000000000000000098
S11344200000000000000000000000002E2E2F6895
S1134430706C2F717370692F68706C5F7173706921
S11344402E63000000300040003400400020014191
S1134450004001410000004300040043000000004C
S11344600000000000000000000000000000000048
S11344700000000000000000000000000000000038
S11344800000000000000000000000000000000028
S11344900000000000000000000000000C002210DA
S11344A000000200000000001800FF0105000000E9
S11344B02E2E2F68706C2F736572636F6D2F68706A
S11344C06C5F736572636F6D2E630000003800408B
S11344D0003C004000A0014100C0014102006D0009
S11344E00803000000000000FA00000000000000C3
S11344F02E2E2F68706C2F74632F68706C5F74633A
S11345002E630000F8B500BFF8BC08BC9E46704797
S113451089020000F8B500BFF8BC08BC9E4670478D
S1074520650200002C
S1134524FFFFFFFF01000000010000000100000084
S1134534FFFFFFFFA0200000020000000843020068
S113454410000000D401002000000000A02000009E
S1134554020000000C4302000C000000C80100200B
S113456400000000A020000002000000200002005F
S1134574400000006C02002000000000A0200000A5
S1134584020000001043020008000000E4010020BF
S113459400000000A020000002000000200002002F
S11345A440000000EC01002000000000A000000016
S11345B403000000000003004000000000000000AD
S11345C42C020020A00000000300000000000300EF
S10F45D440000000EC0100202C0200203C
S9030000FC
